:020000040000FA
:100000000C9435010C9466010C9466010C94660105
:100010000C9466010C9466010C9466010C946601C4
:100020000C9466010C9466010C9466010C946601B4
:100030000C9466010C9466010C9466010C946601A4
:100040000C9466010C9466010C9466010C94660194
:100050000C9466010C9466010C9466010C94CD0519
:100060000C9466010C94A3050C9479050C9466011C
:100070000C9466010C9466010C9466010C94660164
:100080000C9466010C9466010C9466010C94660154
:100090000C944F050C9425050C9466010C94660194
:1000A0000C9466010C9466010C9466010C94660134
:1000B0000C9466010C9466010C9466010C94660124
:1000C0000C9466010C9466010C9466010C94FB047C
:1000D0000C94D1040C9466010C9466010C94660196
:1000E0000C9466010C941B030C942F030C941403C2
:1000F0000C9441030C9406030C9418030C940C0309
:100100000C949F020C943D030C9447030C942B0316
:100110000C94D5010C9425030C9410030C94330318
:100120000C9439030C9421030C9446030C94F801AD
:100130000C944B030C9417060C948F010C945202F0
:100140000C94E4010C940602000021002400270016
:100150002A002D00300033000101000004010701D6
:100160000A0100002200250028002B002E0031008B
:10017000340002010000050108010B01000020000D
:100180002300260029002C002F003200000100006F
:10019000030106010901050505050705080808080A
:1001A000020202020A0A080804040404010101010F
:1001B000010101010303030303030303040707070A
:1001C0000C0C0C0C0C0C0C0C0202020206060606AF
:1001D000060606060B0B0B0B0B0B0B0B010210207C
:1001E000200808102040102040800201020108046D
:1001F0000201010204081020408080402010080401
:100200000201800402018040201008040201080459
:10021000020101020408102040800102040810209D
:10022000408000000A0B02090C0D0E0807030401B0
:1002300000000000000000000000000000000000BE
:10024000000000000000000000000000000012118B
:10025000100000000000000000000000000000008E
:100260000000000000000000170611241FBECFEFA1
:10027000D1E2DEBFCDBF00E00CBF12E0A0E0B2E0F3
:10028000E0EBF9E100E00BBF02C007900D92A23253
:10029000B107D9F724E0A2E2B2E001C01D92A63472
:1002A000B207E1F711E0C5E3D1E000E006C0219715
:1002B0000109802FFE010E94B80AC433D10780E0F3
:1002C0000807A9F70E94C6060C94D60C0C940000EF
:1002D000FC01A089B18982E08C93A485B5851C922C
:1002E000A685B78580E18C93108EA489B58986E0B8
:1002F0008C93A289B3898C9180618C93A289B389F4
:100300008C9188608C93A289B3898C9180688C933E
:100310000288F389E02D80818F7D80830895AF92DC
:10032000BF92CF92DF92EF92FF920F931F93CF93E2
:10033000DF936C017B018B01040F151FEB015E0144
:10034000AE18BF08C017D10759F06991D601ED91D9
:10035000FC910190F081E02DC6011995892B79F768
:10036000C501DF91CF911F910F91FF90EF90DF902A
:10037000CF90BF90AF900895FC01A089B1898C9176
:10038000A689B78982FD0FC09C91818D8F5F8F7385
:10039000228D821749F0A18DAE0FBF2FB11D5D9642
:1003A0009C93818F08958C910895FC01538D448D09
:1003B000252F30E0842F90E0821B930B541710F010
:1003C000CF96089501970895FC01918D828D98171D
:1003D00061F0A28DAE0FBF2FB11D5D968C91928DF5
:1003E0009F5F9F73928F90E008958FEF9FEF089526
:1003F000FC01918D828D981731F0828DE80FF11DEF
:10040000858D90E008958FEF9FEF0895FC01918D09
:10041000228D892F90E0805C9F4F821B91098F7302
:10042000992708958FE492E00E94060221E0892B2B
:1004300009F420E0822F08958CEE92E00E940602DB
:1004400021E0892B09F420E0822F089589E893E0C8
:100450000E94060221E0892B09F420E0822F0895F2
:10046000FC01A48DA80FB92FB11DA35ABF4F2C9129
:10047000848D90E001968F739927848FA689B78920
:100480002C93A089B1898C91837080648C93938D17
:10049000848D981306C00288F389E02D80818F7DBA
:1004A00080830895EF92FF920F931F93CF93DF9372
:1004B000EC0181E0888F9B8D8C8D98131AC0E889A0
:1004C000F989808185FF15C09FB7F894EE89FF896F
:1004D0006083E889F98980818370806480839FBF0D
:1004E00081E090E0DF91CF911F910F91FF90EF900D
:1004F0000895F62E0B8D10E00F5F1F4F0F7311271D
:10050000E02E8C8D8E110CC00FB607FCFACFE88957
:10051000F989808185FFF5CFCE010E943002F1CFAD
:10052000EB8DEC0FFD2FF11DE35AFF4FF0829FB7CB
:10053000F8940B8FEA89FB8980818062CFCFCF93BB
:10054000DF93EC01888D8823B9F0AA89BB89E889FB
:10055000F9898C9185FD03C0808186FD0DC00FB6A1
:1005600007FCF7CF8C9185FFF2CF808185FFEDCF1F
:10057000CE010E943002E9CFDF91CF91089580E053
:1005800090E0892B29F00E94260281110E94000030
:1005900080E090E0892B29F00E941C0281110E94CA
:1005A000000080E090E0892B29F00E941202811166
:1005B0000E94000080E090E0892B49F080E090E00C
:1005C000892B29F00E94000081110C9400000895ED
:1005D0008150823108F05AC0E82FF0E08827EC50B3
:1005E000FD4F8F4F0C94B80A1403180306030C0335
:1005F000100346031B03210325032B032F0333039F
:1006000039033D034603410347034B0380918000B8
:100610008F77809380000895809180008F7DF9CF3F
:1006200080918000877FF5CF84B58F7784BD089552
:1006300084B58F7DFBCF8091B0008F778093B00021
:1006400008958091B0008F7DF9CF809190008F77D1
:10065000809390000895809190008F7DF9CF8091D4
:100660009000877FF5CF8091A0008F778093A000C6
:1006700008958091A0008F7DF9CF8091A000877FA1
:10068000F5CF809120018F7780932001089580918C
:1006900020018F7DF9CF80912001877FF5CFCF9307
:1006A000DF93282F30E0F901EE5DFD4F8491F901D1
:1006B000E452FE4FD491F901EA56FE4FC491CC2387
:1006C000A1F081110E94E802EC2FF0E0EE0FFF1F75
:1006D000E458FE4FA591B491EC91ED2381E090E0B8
:1006E00009F480E0DF91CF91089580E090E0FACFA7
:1006F0001F93CF93DF93282F30E0F901EE5DFD4F7C
:100700008491F901E452FE4FD491F901EA56FE4F6B
:10071000C491CC23A9F0162F81110E94E802EC2F7E
:10072000F0E0EE0FFF1FEE59FE4FA591B4918FB789
:10073000F894EC91111108C0D095DE23DC938FBFA3
:10074000DF91CF911F910895DE2BF8CFCF93DF93E8
:10075000C6E3D4E060E088810E947803229684E0BA
:10076000C234D807B9F760E080913204DF91CF91AD
:100770000C947803CF93DF9390E0FC01E452FE4F9A
:1007800024918A569E4FFC0184918823D1F090E0F9
:10079000880F991FFC01E85BFE4FA591B491FC0105
:1007A000EE59FE4FC591D49161110EC09FB7F894D8
:1007B0008C91E22FE0958E238C932881E223E883AD
:1007C0009FBFDF91CF9108958FB7F894EC91E22B02
:1007D000EC938FBFF6CF3FB7F894809127029091AA
:1007E0002802A0912902B0912A0226B5A89B05C033
:1007F0002F3F19F00196A11DB11D3FBFBA2FA92FA0
:10080000982F8827BC01CD01620F711D811D911D9C
:1008100042E0660F771F881F991F4A95D1F7089508
:100820008F929F92AF92BF92CF92DF92EF92FF9200
:100830004B015C010E94EB036B017C010E94EB0306
:100840006C197D098E099F09683E734081059105E9
:10085000A8F321E0821A9108A108B10888EEC80E19
:1008600083E0D81EE11CF11C81149104A104B104A1
:1008700029F7FF90EF90DF90CF90BF90AF909F90BF
:100880008F900895CF93DF93EC0188819981009731
:1008900011F00E945C0B198218821D821C821B823F
:1008A0001A82DF91CF910895FC0180819181009798
:1008B00011F00C945C0B08950F931F93CF93DF936B
:1008C000EC0188819981009759F02A813B81261794
:1008D000370730F081E0DF91CF911F910F9108959C
:1008E0008B016F5F7F4F0E94E50B009759F0998352
:1008F00088831B830A832C813D81232B59F7FC01BC
:100900001082E8CF80E0E7CFEF92FF920F931F9322
:10091000CF93DF936115710541F480E0DF91CF91B2
:100920001F910F91FF90EF90089541155105B1F07F
:100930007B01EC010C811D81040F151FB8010E9481
:100940005C04882351F3288139818C819D81B70112
:10095000820F931F0E94CF0C1D830C8381E0DECF9A
:10096000EF92FF920F931F93CF93DF93EC017B01E4
:100970008A01BA010E945C0481110BC0CE010E9461
:100980004204CE01DF91CF911F910F91FF90EF9024
:1009900008951D830C83B701888199810E94CF0C33
:1009A000F0CF1F920F920FB60F9211240BB60F9239
:1009B0002F933F934F935F936F937F938F939F9367
:1009C000AF93BF93EF93FF938FE492E00E943002C6
:1009D000FF91EF91BF91AF919F918F917F916F9117
:1009E0005F914F913F912F910F900BBE0F900FBED3
:1009F0000F901F9018951F920F920FB60F9211240F
:100A00000BB60F922F933F934F935F936F937F9308
:100A10008F939F93AF93BF93EF93FF938FE492E0F5
:100A20000E94BC01FF91EF91BF91AF919F918F9177
:100A30007F916F915F914F913F912F910F900BBEDE
:100A40000F900FBE0F901F9018951F920F920FB628
:100A50000F9211240BB60F922F933F934F935F93F6
:100A60006F937F938F939F93AF93BF93EF93FF9376
:100A70008CEE92E00E943002FF91EF91BF91AF9116
:100A80009F918F917F916F915F914F913F912F91A6
:100A90000F900BBE0F900FBE0F901F9018951F92D6
:100AA0000F920FB60F9211240BB60F922F933F9314
:100AB0004F935F936F937F938F939F93AF93BF9366
:100AC000EF93FF938CEE92E00E94BC01FF91EF91B7
:100AD000BF91AF919F918F917F916F915F914F9156
:100AE0003F912F910F900BBE0F900FBE0F901F9054
:100AF00018951F920F920FB60F9211240BB60F92FA
:100B00002F933F934F935F936F937F938F939F9315
:100B1000AF93BF93EF93FF9389E893E00E94300275
:100B2000FF91EF91BF91AF919F918F917F916F91C5
:100B30005F914F913F912F910F900BBE0F900FBE81
:100B40000F901F9018951F920F920FB60F921124BD
:100B50000BB60F922F933F934F935F936F937F93B7
:100B60008F939F93AF93BF93EF93FF9389E893E0A5
:100B70000E94BC01FF91EF91BF91AF919F918F9126
:100B80007F916F915F914F913F912F910F900BBE8D
:100B90000F900FBE0F901F9018951F920F920FB6D7
:100BA0000F9211242F933F938F939F93AF93BF93F3
:100BB0008091230290912402A0912502B0912602F7
:100BC0003091220223E0230F2D3758F50196A11D05
:100BD000B11D209322028093230290932402A093BC
:100BE0002502B09326028091270290912802A091BD
:100BF0002902B0912A020196A11DB11D80932702FE
:100C000090932802A0932902B0932A02BF91AF913A
:100C10009F918F913F912F910F900FBE0F901F903A
:100C2000189526E8230F0296A11DB11DD2CF0F9370
:100C30001F93CF93DF93EFE4F2E01382128248EE2A
:100C400053E060E070E044835583668377838EE0F1
:100C500092E09183808325ED30E03587248724ED71
:100C600030E03787268720ED30E0318B208B21ED77
:100C700030E0338B228B22ED30E0358B248B26ED58
:100C800030E0378B268B118E128E138E148EECEE85
:100C9000F2E01382128244835583668377839183C3
:100CA00080832DEC30E0358724872CEC30E03787CB
:100CB000268728EC30E0318B208B29EC30E0338B19
:100CC000228B2AEC30E0358B248B2EEC30E0378BF6
:100CD000268B118E128E138E148EE9E8F3E01382A8
:100CE000128244835583668377839183808385EC66
:100CF00090E09587848784EC90E09787868780ECE6
:100D000090E0918B808B81EC90E0938B828B82ECD6
:100D100090E0958B848B86EC90E0978B868B118E80
:100D2000128E138E148EE6E2F4E0C4E3D0E0D18399
:100D3000C083A2E3B0E0B383A28360E370E0758375
:100D400064834EE250E0578346832CE230E03187E3
:100D500020878AE290E09387828708E210E0158777
:100D6000048706E210E017870687D18BC08BB38B10
:100D7000A28B758B648B578B468B318F208F938F13
:100D8000828FDF91CF911F910F910895CF93DF93C1
:100D9000CDB7DEB762970FB6F894DEBF0FBECDBFFA
:100DA000789484B5826084BD84B5816084BD85B546
:100DB000826085BD85B5816085BD80916E00816052
:100DC00080936E00109281008091810082608093F8
:100DD00081008091810081608093810080918000FA
:100DE0008160809380008091B10084608093B10025
:100DF0008091B00081608093B0008091910082600A
:100E00008093910080919100816080939100809106
:100E100090008160809390008091A1008260809317
:100E2000A1008091A10081608093A1008091A00029
:100E300081608093A00080912101826080932101D4
:100E40008091210181608093210180912001816046
:100E50008093200180917A00846080937A00809151
:100E60007A00826080937A0080917A00816080931A
:100E70007A0080917A00806880937A001092C10095
:100E800089E893E00E9468018CEE92E00E9468017C
:100E90008FE492E00E949F02E0916102F091620271
:100EA00080818F7E8083E0916102F0916202808177
:100EB000877F8083E0916102F091620280818F7769
:100EC0008083E0916102F091620280818F7D808356
:100ED000809169028093680261E081E10E94BA0317
:100EE00061E082E10E94BA0360E081E10E94780340
:100EF00060E082E10E94780306E314E061E0F8011B
:100F000080810E94BA030E5F1F4FF4E002341F0776
:100F1000A9F761E0809132040E94BA030E94A603FF
:100F200060E0809134040E94BA0361E08091320451
:100F30000E94780364E670E080E090E00E94100474
:100F400060E0809132040E947803CE0101967C011A
:100F500032E0432E512C612C712C43E0842E912CD5
:100F6000A12CB12C11E00FE189E893E00E94060268
:100F700020914E02181619065CF521112CC089E843
:100F800093E00E94E40190912C029923E1F090916A
:100F90002B02E92FF0E0E35DFD4F8E3351F08083AB
:100FA0009F5F903218F000932B02DECF90932B02BC
:100FB000DBCF108210922C0290934D0210922B02E4
:100FC00010934E02D1CF8C3379F610932C02CCCFF4
:100FD000222309F487C161E081E10E94780361E086
:100FE00082E10E9478031E861D86188A1F861A8A4F
:100FF000198A50E040E06DE172E0CE010D960E944A
:10100000B00410E080914D02181708F04FC0E12F96
:10101000F0E0E35DFD4F808118861F821A861986F5
:101020001C861B8689831A82F70101900020E9F74C
:101030003197AF014E195F09B701CE0107960E94A3
:10104000B0041A8219821C821B821E821D826D8549
:101050007E856115710529F049895A89C7010E9469
:10106000B0044B855C856F817885C7010E9484043C
:10107000811103C0C7010E94420469817A81611510
:10108000710579F04D815E81CE010D960E94B0040C
:10109000C7010E945404CE0107960E9454041F5FAA
:1010A000B1CFCE010D960E944204F2CF8D859E8570
:1010B000009709F486C00E94190A8B016115710519
:1010C00009F083C00E94C109A50194010E94550A3C
:1010D0006115710549F06130710509F4A2C06230F3
:1010E000710511F401E210E096E3C92E94E0D92EC7
:1010F00022242394312CC10180239123892B29F0B0
:1011000061E0F60180810E947803220C331CF2E03A
:10111000CF0ED11C82E4C81684E0D80661F768EED1
:1011200073E080E090E00E94100461E0809132045E
:101130000E9478030E94A6031A8219821C821B82D5
:101140001E821D8241E050E06CE172E0C7010E9406
:10115000B00449895A896D857E85C7010E9484043F
:10116000811103C0C7010E94420441E050E060E2E7
:1011700072E0C7010E948404811103C0C7010E946C
:1011800042044D815E8169817A818CEE92E00E94F9
:101190008F01C7010E945404809134040E944F03C0
:1011A000892BD1F3809134040E944F030197D1F32E
:1011B00060E081E10E94780360E082E10E947803B0
:1011C00083C060E070E0CB0178CF6230710589F4B4
:1011D0000E94C109A30192010E94550A611571057F
:1011E00009F482CF6130710509F07ECF02E210E090
:1011F0007BCF6330710529F50E94C10924E030E0FE
:1012000040E050E00E94550A6115710509F46CCF69
:101210006130710549F06230710561F404E210E05B
:1012200063CF00E210E060CF03E210E05DCF07E2A1
:1012300010E05ACF6330710509F056CF05E210E097
:1012400053CF6131710589F40E94C109A301920154
:101250000E94550A6115710509F446CF6130710588
:1012600009F042CF06E210E03FCF67317105A1F4EB
:101270000E94C109A50194010E94550A61157105DA
:1012800009F432CF6130710591F26230710509F0D5
:101290002BCF08E210E028CF6D31710589F40E9450
:1012A000C109A30192010E94550A6115710509F453
:1012B0001BCF6130710509F017CF09E210E014CFA0
:1012C0006A3271050CF410CF10924E0243E050E0E8
:1012D0006EE172E089E893E00E948F01CE010D96E5
:1012E0000E9454040E94BF023DCE8F929F92AF9203
:1012F000BF92CF92DF92EF92FF92CF93DF93EC01F8
:10130000688179818A819B816115710581059105CB
:1013100021F464E279ED8BE597E02DE133EF41E0D4
:1013200050E00E94550A49015A019B01AC01A7EA0D
:10133000B1E40E94740A6B017C01ACEEB4EFA5012C
:1013400094010E94820AC60ED71EE81EF91EF7FEFF
:1013500006C081E0C81AD108E10880E8F80AC8820E
:10136000D982EA82FB82C701B6019F77DF91CF91D4
:10137000FF90EF90DF90CF90BF90AF909F908F90B5
:1013800008958F929F92AF92BF92CF92DF92EF9289
:10139000FF9260910002709101028091020290918F
:1013A0000302611571058105910521F464E279ED6F
:1013B0008BE597E02DE133EF41E050E00E94550AC4
:1013C00049015A019B01AC01A7EAB1E40E94740AE9
:1013D0006B017C01ACEEB4EFA50194010E94820A7E
:1013E000C60ED71EE81EF91EF7FE06C081E0C81A19
:1013F000D108E10880E8F80AC0920002D092010208
:10140000E0920202F0920302C701B6019F77FF90BB
:10141000EF90DF90CF90BF90AF909F908F90089506
:101420006093000270930102809302029093030282
:1014300008951F93FC0199278827BC01E894119116
:101440001032E9F3193010F01E30C8F31B3251F09E
:101450001D3249F4689406C00E94400A610F711D54
:10146000811D911D119110531A30B0F33EF49095E7
:101470008095709561957F4F8F4F9F4F1F91089575
:10148000592F482F372F262F660F771F881F991F38
:10149000660F771F881F991F620F731F841F951F88
:1014A000660F771F881F991F0895052E97FB1EF45E
:1014B00000940E946C0A57FD07D00E94870A07FC1F
:1014C00003D04EF40C946C0A5095409530952195BC
:1014D0003F4F4F4F5F4F0895909580957095619560
:1014E0007F4F8F4F9F4F08950E94A90AA59F900D8F
:1014F000B49F900DA49F800D911D11240895B7FFF6
:101500000C94740A0E94740A821B930B0895A1E242
:101510001A2EAA1BBB1BFD010DC0AA1FBB1FEE1F6D
:10152000FF1FA217B307E407F50720F0A21BB30BB8
:10153000E40BF50B661F771F881F991F1A9469F734
:1015400060957095809590959B01AC01BD01CF0190
:101550000895A29FB001B39FC001A39F700D811D8C
:101560001124911DB29F700D811D1124911D0895AC
:10157000EE0FFF1F881F8BBF0790F691E02D199487
:101580000F931F93CF93DF938230910510F482E085
:1015900090E0E0914404F091450430E020E0B0E0B8
:1015A000A0E0309799F42115310509F44AC0281BB1
:1015B000390B24303105D8F58A819B81611571057D
:1015C00089F1FB0193838283FE0111C04081518127
:1015D0000281138148175907E0F04817590799F419
:1015E000109761F012960C93129713961C933296F3
:1015F000CF01DF91CF911F910F9108950093440483
:1016000010934504F4CF2115310551F042175307CB
:1016100038F0A901DB019A01BD01DF01F801C1CF5A
:10162000EF01F9CF9093450480934404CDCFFE01A0
:10163000E20FF31F8193919322503109398328835C
:10164000D7CF2091420430914304232B41F42091C1
:101650000602309107023093430420934204209104
:101660000402309105022115310541F42DB73EB732
:101670004091080250910902241B350BE09142046D
:10168000F0914304E217F307A0F42E1B3F0B281739
:10169000390778F0AC014E5F5F4F2417350748F0EB
:1016A0004E0F5F1F509343044093420481939193E4
:1016B0009FCFF0E0E0E09CCFCF93DF930097E9F07D
:1016C000FC01329713821282A0914404B091450428
:1016D000ED0130E020E01097A1F420813181820FEC
:1016E000931F20914204309143042817390709F0D1
:1016F00061C0F0934304E0934204DF91CF910895D9
:10170000EA01CE17DF07E8F54A815B819E014115AA
:101710005105B1F7E901FB83EA8349915991C40F5F
:10172000D51FEC17FD0761F4808191810296840F2B
:10173000951FE90199838883828193819B838A83A2
:10174000F0E0E0E012968D919C9113970097B9F527
:101750002D913C911197CD010296820F931F2091FC
:101760004204309143042817390739F6309751F570
:101770001092450410924404B0934304A093420491
:10178000BCCFD383C28340815181840F951FC8177A
:10179000D90761F44E5F5F4F88819981480F591FC7
:1017A000518340838A819B819383828321153105F4
:1017B00009F0B0CFF0934504E09344049ECFFD01BF
:1017C000DC01C0CF13821282D7CF4F925F926F920B
:1017D0007F928F929F92AF92BF92CF92DF92EF92C1
:1017E000FF920F931F93CF93DF938C01009799F48F
:1017F000CB01DF91CF911F910F91FF90EF90DF9080
:10180000CF90BF90AF909F908F907F906F905F90A0
:101810004F900C94C00AFC01E60FF71F9C01225068
:101820003109E217F30708F4AEC0D901CD91DC917C
:101830001197C617D70720F1C530D10578F0CE0132
:1018400004978617970750F0C61BD70B2297C193B2
:10185000D1936D937C93CF010E945C0BC801DF9103
:10186000CF911F910F91FF90EF90DF90CF90BF909D
:10187000AF909F908F907F906F905F904F90089562
:101880005B01AC1ABD0A4C018C0E9D1EA091440454
:10189000B0914504512C412CF12CE12C109731F5DD
:1018A00080914204909143048815990509F05CC029
:1018B0004616570608F058C0809104029091050220
:1018C000009741F48DB79EB74091080250910902EC
:1018D000841B950BE817F90708F055C0F0934304F3
:1018E000E0934204F90171836083B8CF8D919C919C
:1018F000119712966C90129713967C901397A815D7
:10190000B90559F56C0142E0C40ED11CCA14DB04C0
:1019100020F1AC014A195B09DA011296159780F0A3
:101920006282738251834083D9016D937C93E11469
:10193000F10471F0D7011396FC93EE9312978ECFBA
:1019400022968C0F9D1FF90191838083F301EFCFC5
:10195000F0934504E093440481CF4816590608F4F7
:101960002C017D01D3019ACFCB010E94C00A7C01DA
:10197000009749F0AE01B8010E94C60CC8010E9450
:101980005C0B87016BCF10E000E068CFFB01DC014E
:1019900002C001900D9241505040D8F70895FB01CC
:1019A000DC0101900D920020E1F70895F894FFCF3B
:1019B0000100000000004604800000000000520208
:1019C0008F01D5019F020602E401F8013C003C3181
:0219D0003E00D7
:020000040003F7
:10E000000D9489F10D94B2F10D94B2F10D94B2F129
:10E010000D94B2F10D94B2F10D94B2F10D94B2F1F0
:10E020000D94B2F10D94B2F10D94B2F10D94B2F1E0
:10E030000D94B2F10D94B2F10D94B2F10D94B2F1D0
:10E040000D94B2F10D94B2F10D94B2F10D94B2F1C0
:10E050000D94B2F10D94B2F10D94B2F10D94B2F1B0
:10E060000D94B2F10D94B2F10D94B2F10D94B2F1A0
:10E070000D94B2F10D94B2F10D94B2F10D94B2F190
:10E080000D94B2F10D94B2F10D94B2F10D94B2F180
:10E090000D94B2F10D94B2F10D94B2F10D94B2F170
:10E0A0000D94B2F10D94B2F10D94B2F10D94B2F160
:10E0B0000D94B2F10D94B2F10D94B2F10D94B2F150
:10E0C0000D94B2F10D94B2F10D94B2F10D94B2F140
:10E0D0000D94B2F10D94B2F10D94B2F10D94B2F130
:10E0E0000D94B2F141546D656761323536300041AF
:10E0F000726475696E6F206578706C6F72657220DE
:10E1000073746B3530305632206279204D4C530099
:10E11000426F6F746C6F616465723E004875683F52
:10E1200000436F6D70696C6564206F6E203D200048
:10E130004350552054797065202020203D20005FF9
:10E140005F4156525F415243485F5F3D2000415658
:10E1500052204C696243205665723D20004743437C
:10E160002056657273696F6E203D20004350552024
:10E1700049442020202020203D20004C6F7720663D
:10E18000757365202020203D20004869676820665F
:10E190007573652020203D200045787420667573D6
:10E1A00065202020203D20004C6F636B2066757336
:10E1B000652020203D20004D617220203720323024
:10E1C000313300312E362E3800342E332E350056A2
:10E1D00023202020414444522020206F7020636F70
:10E1E00064652020202020696E73747275637469E1
:10E1F0006F6E2061646472202020496E74657272B3
:10E20000757074006E6F20766563746F7200726A49
:10E210006D702020006A6D70200057686174207056
:10E220006F72743A00506F7274206E6F7420737541
:10E2300070706F72746564004D7573742062652030
:10E2400061206C6574746572002000577269747483
:10E25000696E672045450052656164696E672045B7
:10E26000450045452065727220636E743D00504F35
:10E27000525400303D5A65726F2061646472003FF1
:10E280003D43505520737461747300403D454550C3
:10E29000524F4D207465737400423D426C696E6B41
:10E2A000204C454400453D44756D70204545505215
:10E2B0004F4D00463D44756D7020464C415348001B
:10E2C000483D48656C70004C3D4C69737420492F83
:10E2D0004F20506F72747300513D51756974005234
:10E2E0003D44756D702052414D00563D73686F7707
:10E2F00020696E7465727275707420566563746FF0
:10E30000727300593D506F727420626C696E6B00BD
:10E310002A0011241FBECFEFD1E2DEBFCDBF01E046
:10E320000CBF12E0A0E0B2E0EEE1FDEF03E00BBFB6
:10E3300002C007900D92A030B107D9F712E0A0E01B
:10E34000B2E001C01D92AE30B107E1F70F9460F367
:10E350000D948DFE01E20EBF0FEF0DBF11241FBE05
:10E360000D9460F30D9400F020E030E040ED57E0B4
:10E3700005C0FA013197F1F72F5F3F4F2817390792
:10E38000C0F308959C01260F311DC901A0E0B0E043
:10E390002F5F3F4FABBFFC018791882361F08093D3
:10E3A000C6008091C00086FFFCCF8091C0008064D1
:10E3B0008093C000EACF08958DE08093C6008091DD
:10E3C000C00086FFFCCF8091C00080648093C000B5
:10E3D0008AE08093C6008091C00086FFFCCF8091C8
:10E3E000C00080648093C00008950F94C2F10F9420
:10E3F000DCF10895FC019081992359F09093C600B7
:10E400008091C00086FFFCCF8091C0008064809323
:10E41000C0003196992379F70895282F982F929567
:10E420009F70892F805D8A3308F0895F8093C600D2
:10E430008091C00086FFFCCF8091C00080648093F3
:10E44000C000822F8F70982F905D9A3308F0995FEB
:10E450009093C6008091C00086FFFCCF8091C000E1
:10E4600080648093C00008959C01FB01853691056E
:10E470001CF46330710594F0C90164E670E00F94F8
:10E480002EFE605D7F4F6093C6008091C00086FFC6
:10E49000FCCF8091C00080648093C0002B30310598
:10E4A00014F43297B4F0C90164E670E00F942EFEC4
:10E4B0006AE070E00F942EFE605D7F4F6093C600AF
:10E4C0008091C00086FFFCCF8091C0008064809363
:10E4D000C000C9016AE070E00F942EFEC0968093E0
:10E4E000C6008091C00086FFFCCF8091C000806490
:10E4F0008093C00008951F93182F8EE692EE60E07F
:10E500000F94C2F11093C6008091C00086FFFCCF2B
:10E510008091C00080648093C0000F94DCF11F9153
:10E5200008952F923F924F925F926F927F928F92B7
:10E530009F92AF92BF92CF92DF92EF92FF920F9392
:10E540001F93DF93CF93CDB7DEB762970FB6F894E2
:10E55000DEBF0FBECDBF382E622ECA01DB015C01CB
:10E560006D01772420E2222E2E010894411C511CBB
:10E570008BC081E0A81680E0B80681E0C80680E084
:10E58000D80628F0C601AA27BB270F940DF2BB2797
:10E59000AD2D9C2D8B2D0F940DF28A2D0F940DF225
:10E5A0002092C6008091C00086FFFCCF8091C00001
:10E5B00080648093C0009DE29093C6008091C0006B
:10E5C00086FFFCCF8091C00080648093C0002092C1
:10E5D000C6008091C00086FFFCCF8091C00080649F
:10E5E0008093C00019828601750188249924A1E0D6
:10E5F0003A1651F03A1620F0B2E03B1661F409C029
:10E600000BBFF701779007C0C7010F9477FE782EF4
:10E6100002C0F7017080872D0F940DF22092C60082
:10E620008091C00086FFFCCF8091C0008064809301
:10E63000C000872D8052F401EF70F0708F3520F408
:10E64000E40DF51D708204C0E40DF51D8EE280839B
:10E650000894E11CF11C011D111D0894811C911CE2
:10E6600090E18916910409F0C2CF80E190E0A0E02A
:10E67000B0E0A80EB91ECA1EDB1E198AC2010F9493
:10E68000FAF10F94DCF16A94662009F072CF629679
:10E690000FB6F894DEBF0FBECDBFCF91DF911F91B3
:10E6A0000F91FF90EF90DF90CF90BF90AF909F9031
:10E6B0008F907F906F905F904F903F902F90089534
:10E6C0002F923F924F925F926F927F928F929F9282
:10E6D000AF92BF92CF92DF92EF92FF920F931F9370
:10E6E000DF93CF93CDB7DEB7CD53D1400FB6F894BB
:10E6F000DEBF0FBECDBF01E20EBF0FEF0DBF94B75F
:10E70000F894A89514BE80916000886180936000A1
:10E7100010926000789493FF05C0E0910002F091A0
:10E7200001021995279A2F9A8091C00082608093E8
:10E73000C00080E18093C40088E18093C1000000A4
:10E74000EE24FF24870144E0A42EB12CCC24DD2448
:10E7500024C0C5010197F1F70894E11CF11C011DCB
:10E76000111D21E2E2162EE4F20620E0020720E06D
:10E77000120718F031E0C32ED12CC801B70127ECE5
:10E780003BE140E050E00F9441FE611571058105C9
:10E79000910519F485B1805885B98091C00087FD35
:10E7A00003C0C114D104A9F2A6014F5F5F4FC25E3E
:10E7B000DE4F59834883CE51D140C25EDE4F8881FF
:10E7C0009981CE51D140019711F00D9410FEC05D9A
:10E7D000DE4F19821882C053D14060E0C15DDE4F28
:10E7E0001882CF52D14088249924C35DDE4F19820C
:10E7F0001882CD52D140C05EDE4F188219821A8233
:10E800001B82C052D140CE5CDE4F188219821A8220
:10E810001B82C253D140EE24FF2487010BBFF701B6
:10E8200007911691C45CDE4F19830883CC53D14005
:10E830000D940BFEC25EDE4F28813981CE51D1404E
:10E840002130310509F52091C600C25EDE4F1982E4
:10E850001882CE51D14022C02F5F3F4F4F4F5F4FA4
:10E86000213082E138078AE7480780E0580780F0C6
:10E87000C45CDE4FE881F981CC53D140EF5FFF4F9C
:10E8800019F0EE27FF27099420E030E040E050E047
:10E890008091C00087FFE0CF2091C600C35DDE4FAE
:10E8A00048815981CD52D1404F5F5F4FC35DDE4FEC
:10E8B00059834883CD52D140213209F063C64A3092
:10E8C000510508F05FC60894811C911C53E0851621
:10E8D000910409F059C600E010E018C081E280936D
:10E8E000C6008091C00086FFFCCF8091C00080648C
:10E8F0008093C0002F5F3F4F2931310579F70F9486
:10E90000DCF10F5F1F4F0530110519F020E030E0FA
:10E91000E5CF10920A0210920B0210920C02109294
:10E920000D02109206021092070210920802109235
:10E930000902109202021092030210920402109235
:10E9400005028FEE90EE60E00F94F5F180E191EE1C
:10E9500060E00F94C2F18091C00087FFFCCF9091DE
:10E96000C600903608F09F759032B8F09093C600BC
:10E970008091C00086FFFCCF8091C00080648093AE
:10E98000C000A0E2A093C6008091C00086FFFCCF2B
:10E990008091C00080648093C000983409F4D7C18E
:10E9A0009934B8F4923409F459C1933458F490333B
:10E9B00019F1903308F4E3C59F33A1F1903409F0C5
:10E9C000DEC5BDC0953409F470C1963409F0D7C5D1
:10E9D00098C1923509F42BC2933538F49C3409F46C
:10E9E000F5C1913509F0CBC518C2963509F445C279
:10E9F000993509F0C4C567C483E792EE62E00F94CD
:10EA0000F5F110920602109207021092080210927D
:10EA1000090210920A0210920B0210920C0210923C
:10EA20000D0213C18FE792EE62E00F94F5F18FEEC5
:10EA300090EE60E00F94F5F181E291EE60E00F94CA
:10EA4000C2F187EB91EE60E00F94F5F180E391EE77
:10EA500060E00F94C2F184EE90EE60E00F94F5F167
:10EA60008FE391EE60E00F94C2F186E090E061E008
:10EA700070E00F9434F20F94DCF18DE591EE60E0DC
:10EA80000F94C2F189EC91EE60E00F94F5F18EE401
:10EA900091EE60E00F94C2F183EC91EE60E00F9490
:10EAA000F5F18CE691EE60E00F94C2F18EE10F94E7
:10EAB0000DF288E90F940DF281E00F940DF20F949E
:10EAC000DCF18BE791EE60E00F94C2F119E0E0E039
:10EAD000F0E010935700E4918E2F0F940DF20F94F5
:10EAE000DCF18AE891EE60E00F94C2F1E3E0F0E03F
:10EAF00010935700E4918E2F0F940DF20F94DCF1D8
:10EB000089E991EE60E00F94C2F1E2E0F0E0109349
:10EB10005700E4918E2F0F940DF20F94DCF188EAE8
:10EB200091EE60E00F94C2F1E1E0F0E01093570045
:10EB30001491812F0F940DF20F94DCF107CF8BE825
:10EB400092EE62E00F94F5F18BE492EE60E00F94A8
:10EB5000F5F10F94DCF100E010E019C0C8016F2D51
:10EB60000F947FFEFF2031F489E492EE60E00F9471
:10EB7000C2F10BC0F092C6008091C00086FFFCCFAE
:10EB80008091C00080648093C0000F5F1F4FC80158
:10EB900081519F41A0E0B0E0ABBFFC01F790BAE229
:10EBA000FB1621F0E2E000301E07C1F60F94DCF105
:10EBB0000F94DCF187E592EE60E00F94F5F10F948D
:10EBC000DCF1CC24DD2400E010E01EC0C8010F946D
:10EBD00077FEF82E882331F489E492EE60E00F94FA
:10EBE000C2F10BC08093C6008091C00086FFFCCFAD
:10EBF0008091C00080648093C000FE1419F00894D6
:10EC0000C11CD11C0F5F1F4FC80181519F41A0E063
:10EC1000B0E0ABBFFC01E790FAE2EF1621F022E092
:10EC20000030120799F60F94DCF10F94DCF182E6C4
:10EC300092EE60E00F94C2F1C60161E070E00F94C3
:10EC400034F20F94DCF10F94DCF110920202109276
:10EC50000302109204021092050278CE89E992EE26
:10EC600062E00F94F5F1279A2F9A16C02F9880E052
:10EC700090E0E0EDF7E03197F1F7019684369105E9
:10EC8000C1F72F9A80E090E0E0EDF7E03197F1F7DF
:10EC9000019684369105C1F78091C00087FFE6CFC9
:10ECA0008091C00087FFFCCF64C485EA92EE62E0E9
:10ECB0000F94F5F140910202509103026091040219
:10ECC0007091050281E020E10F9491F2809102029F
:10ECD00090910302A0910402B091050280509F4FD1
:10ECE000AF4FBF4F8093020290930302A0930402A0
:10ECF000B093050280509041A040B04008F426CE69
:10ED0000A4CF83EB92EE62E00F94F5F140910602FE
:10ED100050910702609108027091090280E020E1A1
:10ED20000F9491F28091060290910702A09108023F
:10ED3000B091090280509F4FAF4FBF4F80930602A2
:10ED400090930702A0930802B0930902FFCD80ECD4
:10ED500092EE62E00F94F5F183E792EE60E00F949B
:10ED6000F5F18FE792EE60E00F94F5F18BE892EE0B
:10ED700060E00F94F5F189E992EE60E00F94F5F10F
:10ED800085EA92EE60E00F94F5F183EB92EE60E09D
:10ED90000F94F5F180EC92EE60E00F94F5F187ECC2
:10EDA00092EE60E00F94F5F188ED92EE60E00F9442
:10EDB000F5F18FED92EE60E00F94F5F18AEE92EEB0
:10EDC00060E00F94F5F183E093EEBDCD87EC92EE19
:10EDD00062E00F94F5F181E40F947BF282E40F94EA
:10EDE0007BF283E40F947BF284E40F947BF285E45E
:10EDF0000F947BF286E40F947BF287E40F947BF20E
:10EE000088E40F947BF28AE40F947BF28BE40F94F6
:10EE10007BF28CE40F947BF299CD88ED92EE62E068
:10EE20000F94F5F1772473948824992409C48FED05
:10EE300092EE62E00F94F5F140910A0250910B02BC
:10EE400060910C0270910D0282E020E10F9491F22A
:10EE500080910A0290910B02A0910C02B0910D02D8
:10EE600080509F4FAF4FBF4F80930A0290930B0289
:10EE7000A0930C02B0930D0269CD8AEE92EE62E08F
:10EE80000F94F5F184EE90EE60E00F94F5F18FECC5
:10EE900091EE60E00F94F5F1662477244301CC5D98
:10EEA000DE4F19821882C452D140D401C301B695F5
:10EEB000A79597958795CA5DDE4F88839983AA8326
:10EEC000BB83C652D140CC5DDE4FA881B981C4520C
:10EED000D1401196CC5DDE4FB983A883C452D14096
:10EEE000CD0162E070E00F9434F2B0E2B093C6005E
:10EEF0008091C00086FFFCCF8091C0008064809329
:10EF0000C000EDE2E093C6008091C00086FFFCCF18
:10EF10008091C00080648093C000F0E2F093C6004E
:10EF20008091C00086FFFCCF8091C00080648093F8
:10EF3000C000CA5DDE4FE880F9800A811B81C6529D
:10EF4000D140BB27A12F902F8F2D0F940DF2CA5DBA
:10EF5000DE4F8881C652D1400F940DF2B0E2FB2EF5
:10EF6000F092C6008091C00086FFFCCF8091C00067
:10EF700080648093C0000DE30093C6008091C000C0
:10EF800086FFFCCF8091C00080648093C00010E2B7
:10EF90001093C6008091C00086FFFCCF8091C00016
:10EFA00080648093C0008BBEF3012791C65DDE4F65
:10EFB0002883CA52D140A22EBB24CC24DD2408943D
:10EFC000611C711C811C911C8BBEF3018791282E42
:10EFD0003324442455240894611C711C811C911C09
:10EFE0008BBEF3013791C55DDE4F3883CB52D140E4
:10EFF0000894611C711C811C911C8BBEF30147910C
:10F00000C45DDE4F4883CC52D140ADEFEA2EAFEF66
:10F01000FA2EAFEF0A2FAFEF1A2F6E0C7F1C801E57
:10F02000911E142D032DF22CEE24EA0CFB1C0C1D5A
:10F030001D1D0F940DF220E22093C6008091C000A8
:10F0400086FFFCCF8091C00080648093C000C65DC5
:10F05000DE4F8881CA52D1400F940DF230E23093D6
:10F06000C6008091C00086FFFCCF8091C000806404
:10F070008093C000C45DDE4F8881CC52D1400F9494
:10F080000DF240E24093C6008091C00086FFFCCFA5
:10F090008091C00080648093C000C55DDE4F888190
:10F0A000CB52D1400F940DF250E25093C6008091A4
:10F0B000C00086FFFCCF8091C00080648093C000B8
:10F0C0008FEFE8168FEFF80680E0080780E018075A
:10F0D00031F484E092EE60E00F94C2F1DFC0D80119
:10F0E000C7018070907CA070B0708050904CA040A0
:10F0F000B040D1F52FEF3FE340E050E0E222F322B1
:10F1000004231523CA5DDE4FA880B980CA80DB8046
:10F11000C652D140AE0CBF1CC01ED11EAA0CBB1CD7
:10F12000CC1CDD1C8EE092EE60E00F94C2F1BB2798
:10F13000A12F902F8F2D0F940DF28E2D0F940DF285
:10F1400030E23093C6008091C00086FFFCCF8091F2
:10F15000C00080648093C0004EE34093C60080915D
:10F16000C00086FFFCCF87C08EE09EEFA0E0B0E03D
:10F17000E822F9220A231B239CE0E91694E9F90608
:10F1800090E0090790E0190709F088C0C45DDE4FE0
:10F19000A881CC52D140EA2EFF2400E010E0102FCD
:10F1A0000F2DFE2CEE24C55DDE4FB881CB52D14031
:10F1B000EB0EF11C011D111DD601C501817090706F
:10F1C000A070B070DC0199278827E80EF91E0A1F8D
:10F1D0001B1F20EF30E040E050E0A222B322C42207
:10F1E000D52241E1AA0CBB1CCC1CDD1C4A95D1F7F1
:10F1F000EA0CFB1C0C1D1D1D81E090E0A0E0B0E0BE
:10F20000282239224A225B2235E1220C331C441C7D
:10F21000551C3A95D1F7E20CF31C041D151D57013E
:10F220006801AA0CBB1CCC1CDD1C85E192EE60E0E1
:10F230000F94C2F1C801AA27BB270F940DF2BB2778
:10F24000A12F902F8F2D0F940DF28E2D0F940DF274
:10F2500090E29093C6008091C00086FFFCCF809121
:10F26000C00080648093C000AEE3A093C60080918C
:10F27000C00086FFFCCF8091C00080648093C000F6
:10F28000C601AA27BB270F940DF2BB27AD2D9C2DDD
:10F290008B2D0F940DF28A2D0F940DF20F94DCF14B
:10F2A000CC5DDE4FE881F981C452D140F99709F471
:10F2B0004DCBF4E0EF2EF12C012D112D6E0C7F1CA7
:10F2C000801E911EF2CD83E093EE62E00F94F5F183
:10F2D0008AE192EE60E00F94C2F18091C00087FF56
:10F2E000FCCF1091C6001F751093C6008091C0001E
:10F2F00086FFFCCF8091C00080648093C0000F9493
:10F30000DCF1812F81548A3108F036C1163409F4BA
:10F3100095C0173490F4133409F44EC0143430F40B
:10F320001134F1F0123409F01DC130C0143409F465
:10F3300059C0153409F016C16BC01A3409F4C4C0A1
:10F340001B3438F4173409F48FC0183409F00AC19B
:10F35000A1C01B3409F4D2C01C3409F003C1E8C0B9
:10F360008FEF81B90DC082B1809582B980E090E0C5
:10F37000E0EDF7E03197F1F70196883C9105C1F790
:10F380008091C00087FFEFCF12B8EFC08FEF84B934
:10F390000DC085B1809585B980E090E0E0EDF7E0A3
:10F3A0003197F1F70196883C9105C1F78091C00033
:10F3B00087FFEFCF15B8D9C08FEF87B90DC088B1DF
:10F3C000809588B980E090E0E0EDF7E03197F1F7C3
:10F3D0000196883C9105C1F78091C00087FFEFCF6F
:10F3E00018B8C3C08FEF8AB90DC08BB180958BB9A7
:10F3F00080E090E0E0EDF7E03197F1F70196883C8E
:10F400009105C1F78091C00087FFEFCF1BB8ADC059
:10F410008FEF8DB90DC08EB180958EB980E090E0F0
:10F42000E0EDF7E03197F1F70196883C9105C1F7DF
:10F430008091C00087FFEFCF1EB897C08FEF80BBD1
:10F440000DC081B3809581BB80E090E0E0EDF7E0F6
:10F450003197F1F70196883C9105C1F78091C00082
:10F4600087FFEFCF11BA81C08FEF83BB0DC084B38C
:10F47000809584BB80E090E0E0EDF7E03197F1F714
:10F480000196883C9105C1F78091C00087FFEFCFBE
:10F4900014BA6BC08FEF809301010FC080910201FD
:10F4A00080958093020180E090E0E0EDF7E03197F5
:10F4B000F1F70196883C9105C1F78091C00087FF64
:10F4C000EDCF1092020151C08FEF809304010FC065
:10F4D0008091050180958093050180E090E0E0ED4A
:10F4E000F7E03197F1F70196883C9105C1F78091DB
:10F4F000C00087FFEDCF1092050137C08FEF8093DA
:10F5000007010FC08091080180958093080180E079
:10F5100090E0E0EDF7E03197F1F70196883C910536
:10F52000C1F78091C00087FFEDCF109208011DC088
:10F530008FEF80930A010FC080910B01809580931B
:10F540000B0180E090E0E0EDF7E03197F1F70196F4
:10F55000883C9105C1F78091C00087FFEDCF1092E4
:10F560000B0103C085E292EEEEC98091C00087FFD7
:10F57000FCCF8091C600EAC988E392EEE4C98CE131
:10F5800091EEE1C988249924933011F1943028F444
:10F59000913089F09230B8F408C0953061F195301F
:10F5A000F0F0963009F048C043C02B3109F042C951
:10F5B00091E06BE13FC96227C15DDE4F2883CF52E6
:10F5C000D14092E037C9B22FA0E0622793E032C960
:10F5D000822F90E0A82BB92B622794E02BC92E3004
:10F5E00009F039C3622795E0C05DDE4F19821882A9
:10F5F000C053D1401FC9E1E0F0E0EC0FFD1FC05D3A
:10F60000DE4F08811981C053D140E00FF11F2083E4
:10F610000F5F1F4FC05DDE4F19830883C053D14079
:10F6200062270A171B0709F005C9D80196E002C92D
:10F63000261709F010C303C0973009F0FBC87724E0
:10F640009981933109F412C19431C8F4963009F4C8
:10F65000D8C0973050F4923009F406C1933009F4C1
:10F660006DC0913009F059C253C0913109F477C08F
:10F67000923108F0BBC0903109F04FC2F5C098310B
:10F6800009F487C0993150F4953109F4EFC09531F0
:10F6900008F4C6C1963109F040C2C2C19A3109F4DA
:10F6A0006CC09A3108F491C09B3109F45BC09D3164
:10F6B00009F033C29D81903359F48F81882311F46E
:10F6C0009EE11CC0813011F091E018C098E916C08D
:10F6D000892F807591F0903539F4E0E0F0E089E011
:10F6E0008093570094910AC0983539F4E3E0F0E034
:10F6F00089E080935700949101C090E01A821B82A8
:10F700008D818C831D829E831F8227E030E009C299
:10F710001A8288E08B8381E48C8386E58D8382E581
:10F720008E8389E48F8383E5888780E589878FE5E9
:10F730008A8782E38B872BE030E0F3C18A818139AD
:10F7400041F0823941F0803911F48FE005C080E04A
:10F7500003C082E001C08AE01A828B8344C0772410
:10F76000739482C08D81882311F48EE12CC0813086
:10F7700011F081E028C088E926C01A82E1E0F0E0BB
:10F7800089E08093570084918B831C8224E030E0D1
:10F79000C8C18B81803589F48C81883039F4E2E0EE
:10F7A000F0E089E08093570084910DC0E0E0F0E044
:10F7B00089E080935700849106C0E3E0F0E089E09F
:10F7C0008093570084911A82DFCF8D81836C99E0FA
:10F7D000E1E0F0E0082E90935700E89507B600FCB2
:10F7E000FDCF1A821B8223E030E09BC180EC8A832C
:10F7F000CE5CDE4F188219821A821B82C253D1401E
:10F800008EC18A8190E0A0E0B0E0582F44273327D2
:10F8100022278B8190E0A0E0B0E0DC0199278827C7
:10F82000282B392B4A2B5B2B8D8190E0A0E0B0E098
:10F83000282B392B4A2B5B2B8C8190E0A0E0B0E089
:10F84000BA2FA92F982F8827282B392B4A2B5B2BCF
:10F85000220F331F441F551FC05EDE4F288339839C
:10F860004A835B83C052D1401A8259C13A81C95C34
:10F87000DE4F3883C753D140CA5CDE4F1882C6536F
:10F88000D1408B81C82EDD24CA5CDE4F488159816E
:10F89000C653D140C42AD52A933109F082C0CE5C28
:10F8A000DE4F88819981AA81BB81C253D1408050AB
:10F8B000904CA340B04030F583E0CE5CDE4FE88052
:10F8C000F9800A811B81C253D140F70100935B008C
:10F8D00080935700E89507B600FCFDCFCE5CDE4F65
:10F8E000088119812A813B81C253D14000501F4FAA
:10F8F0002F4F3F4FCE5CDE4F088319832A833B8313
:10F90000C253D140C05EDE4F488159816A817B81FC
:10F91000C052D140DE011B9631E08C9111962C91A2
:10F9200011971296C75CDE4F2883C953D140C85C3B
:10F93000DE4F1882C853D14090E0C85CDE4FE881AA
:10F94000F981C853D1408E2B9F2B0C01FA01609393
:10F950005B0030935700E89511244E5F5F4F6F4F67
:10F960007F4F0EEFE02E0FEFF02ECE0CDF1CC114F8
:10F97000D10499F685E0C05EDE4F088119812A81A5
:10F980003B81C052D140F80120935B008093570027
:10F99000E89507B600FCFDCF81E180935700E8951C
:10F9A00035C0C05EDE4F88819981AA81BB81C0527B
:10F9B000D140B695A795979587957C018601ABE0D8
:10F9C000AA2EB12CAC0EBD1E0BC0D5016D915D01F0
:10F9D000C7010F947FFE0894E11CF11C01501040F8
:10F9E0000115110591F7A60160E070E0440F551F65
:10F9F000661F771FC05EDE4FE880F9800A811B8199
:10FA0000C052D1404E0D5F1D601F711F1A82C05E33
:10FA1000DE4F488359836A837B83C052D1407FC0C5
:10FA2000FA80C55CDE4FF882CB53D140C65CDE4F16
:10FA30001882CA53D1408B81C82EDD24C65CDE4FAC
:10FA400008811981CA53D140C02AD12A1A828981DA
:10FA5000BE016D5F7F4F843121F59601C05EDE4FA0
:10FA6000E880F9800A811B81C052D1400BBFF701A9
:10FA700087919691DB018C9311969C936E5F7F4FDB
:10FA8000D801C7010296A11DB11DC05EDE4F88835B
:10FA90009983AA83BB83C052D14022503040F1F6F3
:10FAA00036C0C05EDE4F288139814A815B81C052F9
:10FAB000D1400894C108D108760100E010E0089414
:10FAC000C11CD11C0894E11CF11C011D111DE20E8A
:10FAD000F31E041F151F21BDBB27A52F942F832FB5
:10FAE00082BD2F5F3F4F4F4F5F4FF89A80B5DB01CC
:10FAF0008D93BD012E153F054007510761F7C05E8C
:10FB0000DE4F288339834A835B83C052D1409601FC
:10FB10002D5F3F4FFB01108204C080EC8A8322E0FE
:10FB200030E08BE18093C6008091C00086FFFCCF5F
:10FB30008091C00080648093C000C15DDE4FF88179
:10FB4000CF52D140F093C6008091C00086FFFCCF19
:10FB50008091C00080648093C000432F3093C60022
:10FB60008091C00086FFFCCF8091C00080648093AC
:10FB7000C000922F2093C6008091C00086FFFCCF6A
:10FB80008091C00080648093C0008EE08093C600A6
:10FB90008091C00086FFFCCF8091C000806480937C
:10FBA000C00065E1C15DDE4FE880CF52D1406E25D7
:10FBB00069276427FE01319610C090819093C6009A
:10FBC0008091C00086FFFCCF31968091C000806498
:10FBD0008093C0006927215030402115310569F715
:10FBE0006093C6008091C00086FFFCCF8091C0006A
:10FBF00080648093C00085B1805885B9772081F4F6
:10FC0000C15DDE4F0881CF52D1400F5FC15DDE4F35
:10FC10000883CF52D14090E0A0E0B0E00D941AF4F8
:10FC200027982F9880E090E020ED37E0F901319798
:10FC3000F1F7019684369105C9F700008091C00064
:10FC40008D7F8093C00081E180935700E895EE2777
:10FC5000FF270994FFCF90E00D941AF497FB092E2B
:10FC600007260AD077FD04D02ED006D000201AF443
:10FC7000709561957F4F0895F6F7909581959F4F08
:10FC80000895A1E21A2EAA1BBB1BFD010DC0AA1FDD
:10FC9000BB1FEE1FFF1FA217B307E407F50720F0F5
:10FCA000A21BB30BE40BF50B661F771F881F991F70
:10FCB0001A9469F760957095809590959B01AC01B9
:10FCC000BD01CF010895AA1BBB1B51E107C0AA1FAC
:10FCD000BB1FA617B70710F0A61BB70B881F991FED
:10FCE0005A95A9F780959095BC01CD010895F99991
:10FCF000FECF92BD81BDF89A992780B50895262F31
:10FD0000F999FECF1FBA92BD81BD20BD0FB6F89400
:0EFD1000FA9AF99A0FBE01960895F894FFCF63
:00000001FF
