:100000000C9435010C9466010C9466010C94660105
:100010000C9466010C9466010C9466010C946601C4
:100020000C9466010C9466010C9466010C946601B4
:100030000C9466010C9466010C9466010C946601A4
:100040000C9466010C9466010C9466010C94660194
:100050000C9466010C9466010C9466010C94CD0519
:100060000C9466010C94A3050C9479050C9466011C
:100070000C9466010C9466010C9466010C94660164
:100080000C9466010C9466010C9466010C94660154
:100090000C944F050C9425050C9466010C94660194
:1000A0000C9466010C9466010C9466010C94660134
:1000B0000C9466010C9466010C9466010C94660124
:1000C0000C9466010C9466010C9466010C94FB047C
:1000D0000C94D1040C9466010C9466010C94660196
:1000E0000C9466010C941B030C942F030C941403C2
:1000F0000C9441030C9406030C9418030C940C0309
:100100000C949F020C943D030C9447030C942B0316
:100110000C94D5010C9425030C9410030C94330318
:100120000C9439030C9421030C9446030C94F801AD
:100130000C944B030C9417060C948F010C945202F0
:100140000C94E4010C940602000021002400270016
:100150002A002D00300033000101000004010701D6
:100160000A0100002200250028002B002E0031008B
:10017000340002010000050108010B01000020000D
:100180002300260029002C002F003200000100006F
:10019000030106010901050505050705080808080A
:1001A000020202020A0A080804040404010101010F
:1001B000010101010303030303030303040707070A
:1001C0000C0C0C0C0C0C0C0C0202020206060606AF
:1001D000060606060B0B0B0B0B0B0B0B010210207C
:1001E000200808102040102040800201020108046D
:1001F0000201010204081020408080402010080401
:100200000201800402018040201008040201080459
:10021000020101020408102040800102040810209D
:10022000408000000A0B02090C0D0E0807030401B0
:1002300000000000000000000000000000000000BE
:10024000000000000000000000000000000012118B
:10025000100000000000000000000000000000008E
:100260000000000000000000170611241FBECFEFA1
:10027000D1E2DEBFCDBF00E00CBF12E0A0E0B2E0F3
:10028000E0EBF9E100E00BBF02C007900D92A23253
:10029000B107D9F724E0A2E2B2E001C01D92A63472
:1002A000B207E1F711E0C5E3D1E000E006C0219715
:1002B0000109802FFE010E94B80AC433D10780E0F3
:1002C0000807A9F70E94C6060C94D60C0C940000EF
:1002D000FC01A089B18982E08C93A485B5851C922C
:1002E000A685B78580E18C93108EA489B58986E0B8
:1002F0008C93A289B3898C9180618C93A289B389F4
:100300008C9188608C93A289B3898C9180688C933E
:100310000288F389E02D80818F7D80830895AF92DC
:10032000BF92CF92DF92EF92FF920F931F93CF93E2
:10033000DF936C017B018B01040F151FEB015E0144
:10034000AE18BF08C017D10759F06991D601ED91D9
:10035000FC910190F081E02DC6011995892B79F768
:10036000C501DF91CF911F910F91FF90EF90DF902A
:10037000CF90BF90AF900895FC01A089B1898C9176
:10038000A689B78982FD0FC09C91818D8F5F8F7385
:10039000228D821749F0A18DAE0FBF2FB11D5D9642
:1003A0009C93818F08958C910895FC01538D448D09
:1003B000252F30E0842F90E0821B930B541710F010
:1003C000CF96089501970895FC01918D828D98171D
:1003D00061F0A28DAE0FBF2FB11D5D968C91928DF5
:1003E0009F5F9F73928F90E008958FEF9FEF089526
:1003F000FC01918D828D981731F0828DE80FF11DEF
:10040000858D90E008958FEF9FEF0895FC01918D09
:10041000228D892F90E0805C9F4F821B91098F7302
:10042000992708958FE492E00E94060221E0892B2B
:1004300009F420E0822F08958CEE92E00E940602DB
:1004400021E0892B09F420E0822F089589E893E0C8
:100450000E94060221E0892B09F420E0822F0895F2
:10046000FC01A48DA80FB92FB11DA35ABF4F2C9129
:10047000848D90E001968F739927848FA689B78920
:100480002C93A089B1898C91837080648C93938D17
:10049000848D981306C00288F389E02D80818F7DBA
:1004A00080830895EF92FF920F931F93CF93DF9372
:1004B000EC0181E0888F9B8D8C8D98131AC0E889A0
:1004C000F989808185FF15C09FB7F894EE89FF896F
:1004D0006083E889F98980818370806480839FBF0D
:1004E00081E090E0DF91CF911F910F91FF90EF900D
:1004F0000895F62E0B8D10E00F5F1F4F0F7311271D
:10050000E02E8C8D8E110CC00FB607FCFACFE88957
:10051000F989808185FFF5CFCE010E943002F1CFAD
:10052000EB8DEC0FFD2FF11DE35AFF4FF0829FB7CB
:10053000F8940B8FEA89FB8980818062CFCFCF93BB
:10054000DF93EC01888D8823B9F0AA89BB89E889FB
:10055000F9898C9185FD03C0808186FD0DC00FB6A1
:1005600007FCF7CF8C9185FFF2CF808185FFEDCF1F
:10057000CE010E943002E9CFDF91CF91089580E053
:1005800090E0892B29F00E94260281110E94000030
:1005900080E090E0892B29F00E941C0281110E94CA
:1005A000000080E090E0892B29F00E941202811166
:1005B0000E94000080E090E0892B49F080E090E00C
:1005C000892B29F00E94000081110C9400000895ED
:1005D0008150823108F05AC0E82FF0E08827EC50B3
:1005E000FD4F8F4F0C94B80A1403180306030C0335
:1005F000100346031B03210325032B032F0333039F
:1006000039033D034603410347034B0380918000B8
:100610008F77809380000895809180008F7DF9CF3F
:1006200080918000877FF5CF84B58F7784BD089552
:1006300084B58F7DFBCF8091B0008F778093B00021
:1006400008958091B0008F7DF9CF809190008F77D1
:10065000809390000895809190008F7DF9CF8091D4
:100660009000877FF5CF8091A0008F778093A000C6
:1006700008958091A0008F7DF9CF8091A000877FA1
:10068000F5CF809120018F7780932001089580918C
:1006900020018F7DF9CF80912001877FF5CFCF9307
:1006A000DF93282F30E0F901EE5DFD4F8491F901D1
:1006B000E452FE4FD491F901EA56FE4FC491CC2387
:1006C000A1F081110E94E802EC2FF0E0EE0FFF1F75
:1006D000E458FE4FA591B491EC91ED2381E090E0B8
:1006E00009F480E0DF91CF91089580E090E0FACFA7
:1006F0001F93CF93DF93282F30E0F901EE5DFD4F7C
:100700008491F901E452FE4FD491F901EA56FE4F6B
:10071000C491CC23A9F0162F81110E94E802EC2F7E
:10072000F0E0EE0FFF1FEE59FE4FA591B4918FB789
:10073000F894EC91111108C0D095DE23DC938FBFA3
:10074000DF91CF911F910895DE2BF8CFCF93DF93E8
:10075000C6E3D4E060E088810E947803229684E0BA
:10076000C234D807B9F760E080913204DF91CF91AD
:100770000C947803CF93DF9390E0FC01E452FE4F9A
:1007800024918A569E4FFC0184918823D1F090E0F9
:10079000880F991FFC01E85BFE4FA591B491FC0105
:1007A000EE59FE4FC591D49161110EC09FB7F894D8
:1007B0008C91E22FE0958E238C932881E223E883AD
:1007C0009FBFDF91CF9108958FB7F894EC91E22B02
:1007D000EC938FBFF6CF3FB7F894809127029091AA
:1007E0002802A0912902B0912A0226B5A89B05C033
:1007F0002F3F19F00196A11DB11D3FBFBA2FA92FA0
:10080000982F8827BC01CD01620F711D811D911D9C
:1008100042E0660F771F881F991F4A95D1F7089508
:100820008F929F92AF92BF92CF92DF92EF92FF9200
:100830004B015C010E94EB036B017C010E94EB0306
:100840006C197D098E099F09683E734081059105E9
:10085000A8F321E0821A9108A108B10888EEC80E19
:1008600083E0D81EE11CF11C81149104A104B104A1
:1008700029F7FF90EF90DF90CF90BF90AF909F90BF
:100880008F900895CF93DF93EC0188819981009731
:1008900011F00E945C0B198218821D821C821B823F
:1008A0001A82DF91CF910895FC0180819181009798
:1008B00011F00C945C0B08950F931F93CF93DF936B
:1008C000EC0188819981009759F02A813B81261794
:1008D000370730F081E0DF91CF911F910F9108959C
:1008E0008B016F5F7F4F0E94E50B009759F0998352
:1008F00088831B830A832C813D81232B59F7FC01BC
:100900001082E8CF80E0E7CFEF92FF920F931F9322
:10091000CF93DF936115710541F480E0DF91CF91B2
:100920001F910F91FF90EF90089541155105B1F07F
:100930007B01EC010C811D81040F151FB8010E9481
:100940005C04882351F3288139818C819D81B70112
:10095000820F931F0E94CF0C1D830C8381E0DECF9A
:10096000EF92FF920F931F93CF93DF93EC017B01E4
:100970008A01BA010E945C0481110BC0CE010E9461
:100980004204CE01DF91CF911F910F91FF90EF9024
:1009900008951D830C83B701888199810E94CF0C33
:1009A000F0CF1F920F920FB60F9211240BB60F9239
:1009B0002F933F934F935F936F937F938F939F9367
:1009C000AF93BF93EF93FF938FE492E00E943002C6
:1009D000FF91EF91BF91AF919F918F917F916F9117
:1009E0005F914F913F912F910F900BBE0F900FBED3
:1009F0000F901F9018951F920F920FB60F9211240F
:100A00000BB60F922F933F934F935F936F937F9308
:100A10008F939F93AF93BF93EF93FF938FE492E0F5
:100A20000E94BC01FF91EF91BF91AF919F918F9177
:100A30007F916F915F914F913F912F910F900BBEDE
:100A40000F900FBE0F901F9018951F920F920FB628
:100A50000F9211240BB60F922F933F934F935F93F6
:100A60006F937F938F939F93AF93BF93EF93FF9376
:100A70008CEE92E00E943002FF91EF91BF91AF9116
:100A80009F918F917F916F915F914F913F912F91A6
:100A90000F900BBE0F900FBE0F901F9018951F92D6
:100AA0000F920FB60F9211240BB60F922F933F9314
:100AB0004F935F936F937F938F939F93AF93BF9366
:100AC000EF93FF938CEE92E00E94BC01FF91EF91B7
:100AD000BF91AF919F918F917F916F915F914F9156
:100AE0003F912F910F900BBE0F900FBE0F901F9054
:100AF00018951F920F920FB60F9211240BB60F92FA
:100B00002F933F934F935F936F937F938F939F9315
:100B1000AF93BF93EF93FF9389E893E00E94300275
:100B2000FF91EF91BF91AF919F918F917F916F91C5
:100B30005F914F913F912F910F900BBE0F900FBE81
:100B40000F901F9018951F920F920FB60F921124BD
:100B50000BB60F922F933F934F935F936F937F93B7
:100B60008F939F93AF93BF93EF93FF9389E893E0A5
:100B70000E94BC01FF91EF91BF91AF919F918F9126
:100B80007F916F915F914F913F912F910F900BBE8D
:100B90000F900FBE0F901F9018951F920F920FB6D7
:100BA0000F9211242F933F938F939F93AF93BF93F3
:100BB0008091230290912402A0912502B0912602F7
:100BC0003091220223E0230F2D3758F50196A11D05
:100BD000B11D209322028093230290932402A093BC
:100BE0002502B09326028091270290912802A091BD
:100BF0002902B0912A020196A11DB11D80932702FE
:100C000090932802A0932902B0932A02BF91AF913A
:100C10009F918F913F912F910F900FBE0F901F903A
:100C2000189526E8230F0296A11DB11DD2CF0F9370
:100C30001F93CF93DF93EFE4F2E01382128248EE2A
:100C400053E060E070E044835583668377838EE0F1
:100C500092E09183808325ED30E03587248724ED71
:100C600030E03787268720ED30E0318B208B21ED77
:100C700030E0338B228B22ED30E0358B248B26ED58
:100C800030E0378B268B118E128E138E148EECEE85
:100C9000F2E01382128244835583668377839183C3
:100CA00080832DEC30E0358724872CEC30E03787CB
:100CB000268728EC30E0318B208B29EC30E0338B19
:100CC000228B2AEC30E0358B248B2EEC30E0378BF6
:100CD000268B118E128E138E148EE9E8F3E01382A8
:100CE000128244835583668377839183808385EC66
:100CF00090E09587848784EC90E09787868780ECE6
:100D000090E0918B808B81EC90E0938B828B82ECD6
:100D100090E0958B848B86EC90E0978B868B118E80
:100D2000128E138E148EE6E2F4E0C4E3D0E0D18399
:100D3000C083A2E3B0E0B383A28360E370E0758375
:100D400064834EE250E0578346832CE230E03187E3
:100D500020878AE290E09387828708E210E0158777
:100D6000048706E210E017870687D18BC08BB38B10
:100D7000A28B758B648B578B468B318F208F938F13
:100D8000828FDF91CF911F910F910895CF93DF93C1
:100D9000CDB7DEB762970FB6F894DEBF0FBECDBFFA
:100DA000789484B5826084BD84B5816084BD85B546
:100DB000826085BD85B5816085BD80916E00816052
:100DC00080936E00109281008091810082608093F8
:100DD00081008091810081608093810080918000FA
:100DE0008160809380008091B10084608093B10025
:100DF0008091B00081608093B0008091910082600A
:100E00008093910080919100816080939100809106
:100E100090008160809390008091A1008260809317
:100E2000A1008091A10081608093A1008091A00029
:100E300081608093A00080912101826080932101D4
:100E40008091210181608093210180912001816046
:100E50008093200180917A00846080937A00809151
:100E60007A00826080937A0080917A00816080931A
:100E70007A0080917A00806880937A001092C10095
:100E800089E893E00E9468018CEE92E00E9468017C
:100E90008FE492E00E949F02E0916102F091620271
:100EA00080818F7E8083E0916102F0916202808177
:100EB000877F8083E0916102F091620280818F7769
:100EC0008083E0916102F091620280818F7D808356
:100ED000809169028093680261E081E10E94BA0317
:100EE00061E082E10E94BA0360E081E10E94780340
:100EF00060E082E10E94780306E314E061E0F8011B
:100F000080810E94BA030E5F1F4FF4E002341F0776
:100F1000A9F761E0809132040E94BA030E94A603FF
:100F200060E0809134040E94BA0361E08091320451
:100F30000E94780364E670E080E090E00E94100474
:100F400060E0809132040E947803CE0101967C011A
:100F500032E0432E512C612C712C43E0842E912CD5
:100F6000A12CB12C11E00FE189E893E00E94060268
:100F700020914E02181619065CF521112CC089E843
:100F800093E00E94E40190912C029923E1F090916A
:100F90002B02E92FF0E0E35DFD4F8E3351F08083AB
:100FA0009F5F903218F000932B02DECF90932B02BC
:100FB000DBCF108210922C0290934D0210922B02E4
:100FC00010934E02D1CF8C3379F610932C02CCCFF4
:100FD000222309F487C161E081E10E94780361E086
:100FE00082E10E9478031E861D86188A1F861A8A4F
:100FF000198A50E040E06DE172E0CE010D960E944A
:10100000B00410E080914D02181708F04FC0E12F96
:10101000F0E0E35DFD4F808118861F821A861986F5
:101020001C861B8689831A82F70101900020E9F74C
:101030003197AF014E195F09B701CE0107960E94A3
:10104000B0041A8219821C821B821E821D826D8549
:101050007E856115710529F049895A89C7010E9469
:10106000B0044B855C856F817885C7010E9484043C
:10107000811103C0C7010E94420469817A81611510
:10108000710579F04D815E81CE010D960E94B0040C
:10109000C7010E945404CE0107960E9454041F5FAA
:1010A000B1CFCE010D960E944204F2CF8D859E8570
:1010B000009709F486C00E94190A8B016115710519
:1010C00009F083C00E94C109A50194010E94550A3C
:1010D0006115710549F06130710509F4A2C06230F3
:1010E000710511F401E210E096E3C92E94E0D92EC7
:1010F00022242394312CC10180239123892B29F0B0
:1011000061E0F60180810E947803220C331CF2E03A
:10111000CF0ED11C82E4C81684E0D80661F768EED1
:1011200073E080E090E00E94100461E0809132045E
:101130000E9478030E94A6031A8219821C821B82D5
:101140001E821D8241E050E06CE172E0C7010E9406
:10115000B00449895A896D857E85C7010E9484043F
:10116000811103C0C7010E94420441E050E060E2E7
:1011700072E0C7010E948404811103C0C7010E946C
:1011800042044D815E8169817A818CEE92E00E94F9
:101190008F01C7010E945404809134040E944F03C0
:1011A000892BD1F3809134040E944F030197D1F32E
:1011B00060E081E10E94780360E082E10E947803B0
:1011C00083C060E070E0CB0178CF6230710589F4B4
:1011D0000E94C109A30192010E94550A611571057F
:1011E00009F482CF6130710509F07ECF02E210E090
:1011F0007BCF6330710529F50E94C10924E030E0FE
:1012000040E050E00E94550A6115710509F46CCF69
:101210006130710549F06230710561F404E210E05B
:1012200063CF00E210E060CF03E210E05DCF07E2A1
:1012300010E05ACF6330710509F056CF05E210E097
:1012400053CF6131710589F40E94C109A301920154
:101250000E94550A6115710509F446CF6130710588
:1012600009F042CF06E210E03FCF67317105A1F4EB
:101270000E94C109A50194010E94550A61157105DA
:1012800009F432CF6130710591F26230710509F0D5
:101290002BCF08E210E028CF6D31710589F40E9450
:1012A000C109A30192010E94550A6115710509F453
:1012B0001BCF6130710509F017CF09E210E014CFA0
:1012C0006A3271050CF410CF10924E0243E050E0E8
:1012D0006EE172E089E893E00E948F01CE010D96E5
:1012E0000E9454040E94BF023DCE8F929F92AF9203
:1012F000BF92CF92DF92EF92FF92CF93DF93EC01F8
:10130000688179818A819B816115710581059105CB
:1013100021F464E279ED8BE597E02DE133EF41E0D4
:1013200050E00E94550A49015A019B01AC01A7EA0D
:10133000B1E40E94740A6B017C01ACEEB4EFA5012C
:1013400094010E94820AC60ED71EE81EF91EF7FEFF
:1013500006C081E0C81AD108E10880E8F80AC8820E
:10136000D982EA82FB82C701B6019F77DF91CF91D4
:10137000FF90EF90DF90CF90BF90AF909F908F90B5
:1013800008958F929F92AF92BF92CF92DF92EF9289
:10139000FF9260910002709101028091020290918F
:1013A0000302611571058105910521F464E279ED6F
:1013B0008BE597E02DE133EF41E050E00E94550AC4
:1013C00049015A019B01AC01A7EAB1E40E94740AE9
:1013D0006B017C01ACEEB4EFA50194010E94820A7E
:1013E000C60ED71EE81EF91EF7FE06C081E0C81A19
:1013F000D108E10880E8F80AC0920002D092010208
:10140000E0920202F0920302C701B6019F77FF90BB
:10141000EF90DF90CF90BF90AF909F908F90089506
:101420006093000270930102809302029093030282
:1014300008951F93FC0199278827BC01E894119116
:101440001032E9F3193010F01E30C8F31B3251F09E
:101450001D3249F4689406C00E94400A610F711D54
:10146000811D911D119110531A30B0F33EF49095E7
:101470008095709561957F4F8F4F9F4F1F91089575
:10148000592F482F372F262F660F771F881F991F38
:10149000660F771F881F991F620F731F841F951F88
:1014A000660F771F881F991F0895052E97FB1EF45E
:1014B00000940E946C0A57FD07D00E94870A07FC1F
:1014C00003D04EF40C946C0A5095409530952195BC
:1014D0003F4F4F4F5F4F0895909580957095619560
:1014E0007F4F8F4F9F4F08950E94A90AA59F900D8F
:1014F000B49F900DA49F800D911D11240895B7FFF6
:101500000C94740A0E94740A821B930B0895A1E242
:101510001A2EAA1BBB1BFD010DC0AA1FBB1FEE1F6D
:10152000FF1FA217B307E407F50720F0A21BB30BB8
:10153000E40BF50B661F771F881F991F1A9469F734
:1015400060957095809590959B01AC01BD01CF0190
:101550000895A29FB001B39FC001A39F700D811D8C
:101560001124911DB29F700D811D1124911D0895AC
:10157000EE0FFF1F881F8BBF0790F691E02D199487
:101580000F931F93CF93DF938230910510F482E085
:1015900090E0E0914404F091450430E020E0B0E0B8
:1015A000A0E0309799F42115310509F44AC0281BB1
:1015B000390B24303105D8F58A819B81611571057D
:1015C00089F1FB0193838283FE0111C04081518127
:1015D0000281138148175907E0F04817590799F419
:1015E000109761F012960C93129713961C933296F3
:1015F000CF01DF91CF911F910F9108950093440483
:1016000010934504F4CF2115310551F042175307CB
:1016100038F0A901DB019A01BD01DF01F801C1CF5A
:10162000EF01F9CF9093450480934404CDCFFE01A0
:10163000E20FF31F8193919322503109398328835C
:10164000D7CF2091420430914304232B41F42091C1
:101650000602309107023093430420934204209104
:101660000402309105022115310541F42DB73EB732
:101670004091080250910902241B350BE09142046D
:10168000F0914304E217F307A0F42E1B3F0B281739
:10169000390778F0AC014E5F5F4F2417350748F0EB
:1016A0004E0F5F1F509343044093420481939193E4
:1016B0009FCFF0E0E0E09CCFCF93DF930097E9F07D
:1016C000FC01329713821282A0914404B091450428
:1016D000ED0130E020E01097A1F420813181820FEC
:1016E000931F20914204309143042817390709F0D1
:1016F00061C0F0934304E0934204DF91CF910895D9
:10170000EA01CE17DF07E8F54A815B819E014115AA
:101710005105B1F7E901FB83EA8349915991C40F5F
:10172000D51FEC17FD0761F4808191810296840F2B
:10173000951FE90199838883828193819B838A83A2
:10174000F0E0E0E012968D919C9113970097B9F527
:101750002D913C911197CD010296820F931F2091FC
:101760004204309143042817390739F6309751F570
:101770001092450410924404B0934304A093420491
:10178000BCCFD383C28340815181840F951FC8177A
:10179000D90761F44E5F5F4F88819981480F591FC7
:1017A000518340838A819B819383828321153105F4
:1017B00009F0B0CFF0934504E09344049ECFFD01BF
:1017C000DC01C0CF13821282D7CF4F925F926F920B
:1017D0007F928F929F92AF92BF92CF92DF92EF92C1
:1017E000FF920F931F93CF93DF938C01009799F48F
:1017F000CB01DF91CF911F910F91FF90EF90DF9080
:10180000CF90BF90AF909F908F907F906F905F90A0
:101810004F900C94C00AFC01E60FF71F9C01225068
:101820003109E217F30708F4AEC0D901CD91DC917C
:101830001197C617D70720F1C530D10578F0CE0132
:1018400004978617970750F0C61BD70B2297C193B2
:10185000D1936D937C93CF010E945C0BC801DF9103
:10186000CF911F910F91FF90EF90DF90CF90BF909D
:10187000AF909F908F907F906F905F904F90089562
:101880005B01AC1ABD0A4C018C0E9D1EA091440454
:10189000B0914504512C412CF12CE12C109731F5DD
:1018A00080914204909143048815990509F05CC029
:1018B0004616570608F058C0809104029091050220
:1018C000009741F48DB79EB74091080250910902EC
:1018D000841B950BE817F90708F055C0F0934304F3
:1018E000E0934204F90171836083B8CF8D919C919C
:1018F000119712966C90129713967C901397A815D7
:10190000B90559F56C0142E0C40ED11CCA14DB04C0
:1019100020F1AC014A195B09DA011296159780F0A3
:101920006282738251834083D9016D937C93E11469
:10193000F10471F0D7011396FC93EE9312978ECFBA
:1019400022968C0F9D1FF90191838083F301EFCFC5
:10195000F0934504E093440481CF4816590608F4F7
:101960002C017D01D3019ACFCB010E94C00A7C01DA
:10197000009749F0AE01B8010E94C60CC8010E9450
:101980005C0B87016BCF10E000E068CFFB01DC014E
:1019900002C001900D9241505040D8F70895FB01CC
:1019A000DC0101900D920020E1F70895F894FFCF3B
:1019B0000100000000004604800000000000520208
:1019C0008F01D5019F020602E401F8013C003C3181
:0219D0003E00D7
:00000001FF
